:020000040000FA
:0300000002009B60
:03000B000209CB1C
:10003B00020A2F00000080FB1200CBB90003020064
:10004B0085E4900200780679018002F0A3D8FCD9F0
:10005B00FA900205AA82AB839000CE7837790180A3
:10006B0015E493A3AC82AD838A828B83F0A3AA821F
:10007B00AB838C828D83D8E9D9E775824C75830A63
:10008B0074001200AD75823E75830074001200ADD2
:10009B0075D0007581BF751000751102759F000238
:1000AB000043C09FF59FE473D09F22D083D082C0C2
:1000BB009FE493C0E0740193C0E0740293F59F2218
:1000CB0079012248656C6C6F204343323533302005
:1000DB002D2054656D7053656E736F72210D0A0080
:1000EB00A1E60D0A00000020410000C842000000FC
:1000FB0040FFFFFFFF000000001200B6960A00123F
:10010B0000B6460B001200B65A0B001200B66B0B72
:10011B00001200B68A0B001200B60C0C001200B6CF
:10012B00110C00E066701008A3E066700A08A3E0EB
:10013B0066700408A3E06622E9799EC608CAC60861
:10014B00CBC608CCC6C370207996CACBCC701979B4
:10015B008ECBCC70137986CC700EF9802ACA33CA39
:10016B00CB33CBCC33CC331930E7F2CCCBCA3350B7
:10017B00147004EA30E00DE4CA3ACACB3BCBCC3C5A
:10018B00CC500209C3E913C6CC182313C6CB18C62F
:10019B00CA18C6F9221201E020F01430E72B74FFC5
:1001AB00FCFBFA747F8022E4FCFBFA7480801AB4A7
:1001BB008008BC00F2BB00EF800F50EBF9E4C39A50
:1001CB00FAE49BFBE49CFCE499C6CC18C6CB18C69E
:1001DB00CA18C6F922E4C9C608CAC608CBC6D333A7
:1001EB000308CCC63392F0C3947F402E9418401969
:1001FB00C9B90704CACBCC225025C309CA33CACB11
:10020B0033CBCC33CC33D9F422F4600DC9CCC3132C
:10021B00CB13CBCA13CAD9F6CC22E4FCFBFA2214BB
:10022B00FCFBFA22E6C33318461846184622E7C3EE
:10023B003319471947194722181818E6084608704A
:10024B000AE608C3337005E633F42208221919199C
:10025B00E7094709700AE709C3337005E733F4224E
:10026B000922E6084608C3134608336002E633F456
:10027B0022E7094709C3134709336002E733F42226
:10028B000012026D604F12027C6012E7548066F61A
:10029B001202437011120239703B090909F4F61866
:1002AB00F618F618F622120258701512022F0808CB
:1002BB000860EAE6447FF618768018E4F618F62212
:1002CB0012022F60161202397012E4F608F608F6C5
:1002DB0008E65480F609090918181822EAC0E0EB61
:1002EB00C0E0ECC0E0EDC0E0E687F0A4FBACF008AA
:1002FB00E687F0A42CFCE435F0FA1809E687F0A4A5
:10030B002C4B60027401CA35F0FCE433FB09E68721
:10031B00F0D2F7A42CCB35F0FC1908E687F0A42B10
:10032B00CC35F0FBE433FD0819E687F0D2E7A42CBB
:10033B004ACB35F0CD3400FC09E687F0D2E7A42D8B
:10034B00CC35F0FDE433FA0918E687F0D2F7A42C8C
:10035B00CD35F0CA3400FC08E687F0D2E7D2F7A41B
:10036B002ACC35F07A7E20E70B0ACB33CBCD33CDBD
:10037B00CC33CC33CB3350147004ED30E00ED2F1D0
:10038B00E4CD3DCDCC3CCC3B5005DA05C2F1EB5472
:10039B007FC63308E63392F0FBE73309E733C39AA2
:1003AB00502D2B70190C0D4C4D70151806E608C30B
:1003BB0033700D20F10AA2F013F6E418800B4024E1
:1003CB00E4F630F002768018F618F618F68024D38F
:1003DB003B14501074FFA2F013F6187680E418F655
:1003EB0018F6800FA2F013F618E63303F618ECF6A6
:1003FB0018EDF6D0E0FDD0E0FCD0E0FBD0E0FA2227
:10040B0012026D601D12027C7005191919801A12E7
:10041B000243701F120258C37003E6673319191990
:10042B0040071818182208080874FFF618F618F673
:10043B0018F6221202586017120239702192F0122C
:10044B00022F7019501720F014080808090909E742
:10045B00F61819E7F61819E7F61819E7F62212023B
:10046B002F60E6E869701F0808E62480F608E4367A
:10047B00F618547FB47F0CE654806007F6E418F648
:10048B0018F622181822E9C6CC08C6CD08C6CE0825
:10049B00C6CFC0E0E8C0E0EAC0E0EBC0E009E9F895
:1004AB0009E7FA09E7FBE6F918E6F8C3EC98ED99CA
:1004BB00EE9AEBC2E7F5F0EFC2E795F0500E600C49
:1004CB00EBCFFBEACEFAE9CDF9E8CCF8EAA2E7D21A
:1004DB00E7FAEB33FB13F5F0EEA2E7D2E7FEEF33CF
:1004EB00FFC5F013A2E730E601B313C5F0C3C0E0BC
:1004FB00C0F07F00C39BFB605B9418600C401AD06C
:10050B00E023F9D0E0F80205E98AF0E9486003D26C
:10051B00F0E4AFF0FAF9F8803BEB30E40D89F0EA48
:10052B006003D2F0E4AFF0F9CAF8EB30E30D88F0DA
:10053B00EF6002D2F0AFF0E4CAC9F8EB54076014D5
:10054B00FBC3EA13FAE913F9E813F8EF135002D2DD
:10055B00E0FFDBEDD0E0C0E030E739C3E49FFFF50F
:10056B00F0EC98FC42F0ED99FD42F0EE9AFE42F071
:10057B00D0E0F9D0E0F8E5F0607AE923F9EE20E776
:10058B0042D8028067C3EF33FFEC33FCED33FDEE53
:10059B0033FE80EAEC28FCED39FDEE3AFED0E02389
:1005AB00F9D0E0F84002801BC3EE13FEED13FDEC17
:1005BB0013FCEF135002D2E0FF08B800067F7F74E4
:1005CB00FF802EEF3350178CF020F00260100CBC24
:1005DB00000C0DBD00080EBE000408E860DFE93317
:1005EB00E813FFEE2313FE4F4D4C8008E95480FFB8
:1005FB00E4FEFDFCEE33EF33F47004FCFD7E80D0A3
:10060B00E0FBD0E0FAD0E0F8D0E0CFC618CEC618A9
:10061B00CDC618CCC6F92212026D70041818182218
:10062B0012027C700D74FFF61819F61819F61819CA
:10063B00F622E7548066F612022F700F1202397001
:10064B00F014F608F608F608F680D1120239700C91
:10065B00F608F608768008E6447F80EC12025B70A1
:10066B000C12024660BFE65480F6E480BB120246D1
:10067B00700519191980A5E869700C763F187680FA
:10068B0018F618F6E8F922E6CDC0E018ECC0E0E663
:10069B0033CD33CDD313F6E719FCE7191933CC332C
:1006AB00C3947F400ECD9D502408E65480F6E41889
:1006BB00F6800FF4043D14501408E6447FF61876C8
:1006CB0080E418F618F6D0E0FCD0E0FD22CCD31372
:1006DB00CCFD18E4C6CBC0E018E4C6CAC0E00808DD
:1006EB00ED08C633E613F618E433C675F003C3CA38
:1006FB0097CA09CB97CB199C40047D08802EBD006F
:10070B00030207CB16B6FF050606081618C3CA3335
:10071B00CACB33CB33CA27CA09CB37CB193CC37DE2
:10072B0008803E187D0820E75CC633C6CA33CACBA7
:10073B0033CB33DDF1D5F0EB30E77BCA97CA09CB6E
:10074B00974ACB199C406F4B7025E620E0218066C1
:10075B00187D08C3CA97CA09CB97CB199CD3C6334C
:10076B00C6CA33CACB33CB3350C9DDE7D5F0E1D39F
:10077B00E4C636C608C636C608C636C608C636C66A
:10078B001818188031C3CA97CA09CB97CB199CB3D9
:10079B004097C633C6CA33CACB33CB33DD34D5F01F
:1007AB002EC6A2E0C640C8CA27CA09CB37194A7061
:1007BB00BECB3CB480B90808E63308E633601F189B
:1007CB001818D0E0FAD0E0FBD0E0FCD0E0FD221806
:1007DB007D08CA27CA09CB37CB193CD3808013F6C7
:1007EB0018E4B67F11F618B6FF0EF618C60470D2D1
:1007FB000808768080CAF618F618F680C5601608C9
:10080B000808C6C313C618C613C618C613C618C61F
:10081B0013C6D5E0EA22E627F60809E637F60809FB
:10082B00E637F60809E637F622E026F608A3E036A7
:10083B00F608A3E036F608A3E036F622E0F608A3A6
:10084B00E0F608A3E0F608A3E0F622E6F008A3E63C
:10085B00F008A3E6F008A3E6F022700422600D185E
:10086B00C6C333C608C633C6D5E0F418222510C557
:10087B0082C0E0E51134FFC583C0E0E510C395826B
:10088B0024F8F8E4C5A8858311858210C5A8E8CEA5
:10089B00F0A3E520F0A37808E608F0A3DEFAEFF06A
:1008AB00A3E58124FAF8E608F0A3E608F0A3E6082E
:1008BB00F0A30808E608F0A3E608F0A3158115815C
:1008CB00D0E0FED0E0F8158115811581E8C0E0EE8F
:1008DB00C0E022851183851082E0A3FEE0A3F52002
:1008EB007808E0A3F608DFFAE0A3FFE0A3C0E0E09E
:1008FB00A3C0E0E0A3C0E0E0A3C0E0E0A3C0E0E45D
:10090B00C5A8858210858311C5A8D083D08202002B
:10091B00B3C0D02510C582C0E0E51134FFC583C03C
:10092B00E0E510C3958224F310AF0885831185820F
:10093B00108008858311858210D2AFC8F0A3E9F02F
:10094B00A3EAF0A3EBF0A37908E709F0A3D8FAEC3C
:10095B00F0A3EDF0A3EEF0A3EFF0A3D0E0F0A3D063
:10096B00E0F0A3D0E0F0A3E520F0A3E5F0F0A322A4
:10097B00851183851082E0C0E0A3E0F9A3E0FAA320
:10098B00E0FBA37808E0F608A3DFFAE0FCA3E0FDA8
:10099B00A3E0FEA3E0FFA3E0C0E0A3E0C0E0A3E080
:1009AB00F5D0A3E0F520A3E0A3F5F0E4C5A885837B
:1009BB0011858210C5A8D082D083D0E0F8D0E03268
:1009CB00C0E074EB12091CC2A9E5BA1313543FF52E
:1009DB000875090085BB0A750B007406780A1208A6
:1009EB0065E50A4508F508E50B4509F509E4F50A3F
:1009FB00F50B7808120143900200780C1208477827
:100A0B0008790C12040B90022F780C120847780807
:100A1B00790C1206229002007808120856D2A97F90
:100A2B000802097BC0E074F212091CE59A759A0062
:100A3B00B290791912011CC2E9439A047F01020991
:100A4B007B12010A1201107A007900120116D2AF43
:100A5B00439A04D2A97A057B02120128E5BA75BA2A
:100A6B0000E5BB75BB0075B63E43B430E5B443B48B
:100A7B0040E5BA75BA00E5BB75BB0075B63E43B42D
:100A8B0030E5B443B44012010480E674F0120878E8
:100A9B0075F00AC0F0900200780812084778081227
:100AAB0001A0E508D0F0842430900204F0900200FD
:100ABB00780812084778081201A0E50875F00A8437
:100ACB00E5F02430900205F0742E900206F09002AF
:100ADB00007808120847900227780C12084778080C
:100AEB00790C12028B78081201A0E50875F00A84C4
:100AFB00E5F02430900207F09002007808120847C6
:100B0B0090022B780C1208477808790C12028B781C
:100B1B00081201A0E50875F00A84E5F02430900274
:100B2B0008F07400900209F07A047B021201287A13
:100B3B00227B021201287F080208DE53BEFBE59ED2
:100B4B00A2E650FA53C6B8E5C643BE040200B3533F
:100B5B00F4FCE5F443FE03E5FED290D2910200B320
:100B6B0043F30CE5F353F1FE53FF3FE5FF7586C0EE
:100B7B0075C50975C23BEA4945C4F5C40200B37497
:100B8B00F0120878E9FAEA60738A087509007407AD
:100B9B007808120865E4F50AF50BEAF50C750D00FB
:100BAB00E50C75F072A4C50CABF075F000A42BFB33
:100BBB0075F072E50DA42BF50DE50D3395E0F50EF3
:100BCB00F50F7808790C120821740755C6780812AE
:100BDB00080885080C85090D850A0E850B0F850CF9
:100BEB0008850D09850E0A850F0B900233780812C4
:100BFB000834900237780C12012E70D67F08020849
:100C0B00DE89C10200B374F7120878EAFEEBFF80AD
:100C1B00128E828F83E0F91201228E828F83A3AE14
:0F0C2B0082AF838E828F83E070E77F010208DE45
:040000050000009B5C
:00000001FF
